{
  "transactions": [
    {
      "hash": "0xf7115e84a8b82070d6b0c381c17f79534bc135afb97bb64fcd21ff27923a0ffb",
      "transactionType": "CALL",
      "contractName": "DeployFairPay",
      "contractAddress": "0x9f7cf1d1f558e57ef88a59ac3d47214ef25b6a06",
      "function": "deploy(address,uint256)",
      "arguments": [
        "0x1B9e1c6334ae6cE61b6999eB034bE7355Da0e3Ab",
        "250"
      ],
      "transaction": {
        "from": "0x1b9e1c6334ae6ce61b6999eb034be7355da0e3ab",
        "to": "0x9f7cf1d1f558e57ef88a59ac3d47214ef25b6a06",
        "gas": "0x7464",
        "value": "0x0",
        "input": "0x4956eaf00000000000000000000000001b9e1c6334ae6ce61b6999eb034be7355da0e3ab00000000000000000000000000000000000000000000000000000000000000fa",
        "nonce": "0x5a",
        "chainId": "0x14a34"
      },
      "additionalContracts": [],
      "isFixedGasLimit": false
    }
  ],
  "receipts": [
    {
      "status": "0x1",
      "cumulativeGasUsed": "0x18ae88",
      "logs": [],
      "logsBloom": "0x00000000000000000000000000000000000000000000000000000000000000000000000000000000000000000000000000000000000000000000000000000000000000000000000000000000000000000000000000000000000000000000000000000000000000000000000000000000000000000000000000000000000000000000000000000000000000000000000000000000000000000000000000000000000000000000000000000000000000000000000000000000000000000000000000000000000000000000000000000000000000000000000000000000000000000000000000000000000000000000000000000000000000000000000000000000",
      "type": "0x2",
      "transactionHash": "0xf7115e84a8b82070d6b0c381c17f79534bc135afb97bb64fcd21ff27923a0ffb",
      "transactionIndex": "0x14",
      "blockHash": "0xf58d69dd4587b509ce3ff672d7c8992f89a795023d67419b6fa119a4ac876a9b",
      "blockNumber": "0x175172d",
      "gasUsed": "0x5444",
      "effectiveGasPrice": "0xe300e",
      "from": "0x1b9e1c6334ae6ce61b6999eb034be7355da0e3ab",
      "to": "0x9f7cf1d1f558e57ef88a59ac3d47214ef25b6a06",
      "contractAddress": null,
      "l1BaseFeeScalar": "0x44d",
      "l1BlobBaseFee": "0x13dfb",
      "l1BlobBaseFeeScalar": "0xa118b",
      "l1Fee": "0x51f648",
      "l1GasPrice": "0x2d",
      "l1GasUsed": "0x640"
    }
  ],
  "libraries": [],
  "pending": [],
  "returns": {},
  "timestamp": 1744670011,
  "chain": 84532,
  "commit": "7b36bdb"
}